:02000000EF29E6
:06000600000000000800EC
:10000C000F3083120313FC004730FD00FD0B0C284E
:0A001C00FC0B0C2800000000080097
:0E002600213083120313FD00FD0B1728080084
:1000340083120313CC1B20288611212886154C1B00
:100044002528061126280615CC1A2A2886102B28BE
:1000540086144C1A2F280610302806143818342811
:10006400061635280612861603208612CC193C285B
:1000740086113D2886154C1941280611422806157B
:10008400CC1846288610472886144C184B2806108E
:100094004C280614381850280616512806128616BD
:1000A40003208612381C58280620592813200800DB
:1000B4008312031338104708CC001A2038140800A0
:1000C40083120313C701C901CA011030CB000430E5
:1000D4004A0203188E28F03088004B0983168800E2
:1000E400032003200F3083120805F0007008C800B5
:1000F4007008031988284908C70048080319862886
:10010400C80CC813C70A7F280430CA00CB0D4B1093
:0E0114000430C907CA0A69284708F00008002D
:0E0122008312031340088A003F088200080081
:10013000063083120313FD00FD0B9C28000008000D
:1001400083120313F801F9011030FC00710DF80D52
:10015000F90D7408F8027508031C750FF9020318ED
:10016000B8287408F80775080318750FF907031005
:0A017000F00DF10DFC0BA6280800AD
:10017A0083120313C501053045020318CB2845082D
:10018A004407840020308000C50AC0284508440777
:10019A0084008001C50345084407C6000A30F400FC
:1001AA00F5014208F0004308F100A0207808F000A9
:1001BA007908F1003030F0074608840070088000A2
:1001CA000A30F400F5014208F0004308F100A020CB
:1001DA007008C2007108C30000307106031DF728B9
:1001EA0000307006031DFA28FC28C503D028080031
:1001FA000F29803083120313C2002229C030C200A3
:10020A0022299430C2002229D430C2002229803007
:10021A00C2002229831203134208013A0319FE2855
:10022A004208023A031903294208033A0319062924
:10023A004208043A031909290C294303F000420829
:10024A00F0077008C20038147008CC001A20381061
:0A025A004408CC001A2038140800F4
:100264000B3083120313FB002630FC005D30FD00CD
:10027400FD0B3A29FC0B3A29FB0B3A29000000003C
:02028400080070
:1002860062207008C2000F300805F00003194D29DE
:0A029600982046294208F0000800F5
:0A02A000FF308316031388000800E6
:1002AA00831603138612061206108610061186118B
:1002BA00831286120612861106118610061006206F
:1002CA0006200620861406148616032086120620A7
:1002DA00861603208612062086160320861206201A
:1002EA00061086160320861206208616032086121A
:1002FA008610861586160320861206208611061495
:10030A0086160320861206108616032086120620F9
:10031A0086160320861206148616032086120620E5
:10032A0006108616032086128615061586140614EC
:0C033A00861603208612062038140800E6
:10034600B529803083120313C200C829C030C20009
:10035600C8299430C200C829D430C200C8298030C8
:10036600C200C829831203134208013A0319A429BB
:100376004208023A0319A9294208033A0319AC298B
:100386004208043A0319AF29B2294303F000420890
:10039600F0077008C2007008CC001A203810C5019A
:1003A60045084407840000080319E1294508440765
:1003B60084000008C7005A20C50AD329381408004B
:1003C60091208A110A128000840ABF0A0319C00A02
:0803D600F003031DE3290800F8
:1003DE0083120313A0012030A1002030A200203090
:1003EE00A300A4015030A5007230A6006F30A70004
:1003FE006330A8006530A9007330AA006F30AB00DF
:10040E00AC014930AD006E30AE006930AF006330E4
:10041E00B0006930B1006130B2006E30B3006430AC
:10042E00B4006F30B500B601C10150210317880129
:10043E00890155210130CC001A200C30CC001A2035
:10044E000130C2000130C3002D30C400A32132217F
:10045E0032210130CC001A200130C2000130C3001D
:10046E002530C400A321B70143217008B7007008DE
:10047E0003193B2A632A3130B7008F2A3230B70076
:10048E008F2A3330B7008F2A3430B7008F2A353099
:10049E00B7008F2A3630B7008F2A3730B7008F2A31
:1004AE003830B7008F2A3930B7008F2A3030B70076
:1004BE008F2A2330B7008F2A3708013A0319422AB0
:1004CE003708023A0319452A3708033A0319482A0E
:1004DE003708053A03194B2A3708063A03194E2AEC
:1004EE003708073A0319512A3708093A0319542ACB
:1004FE0037080A3A0319572A37080B3A03195A2AAA
:10050E0037080E3A03195D2A37080F3A0319602A85
:10051E00370820060319982A0130C1003708A000B9
:10052E00992AC10A0130C2000A30C3003708C4003C
:10053E00FD204108FF3A031DAC2AC1010230C20062
:10054E000A30C3002130C400A3214108C200C301F8
:10055E003930C400BD200230C2000A30C300393029
:08056E00C400A3213A2ABA2AB5
:04400E00F22F000786
:00000001FF
