:02000000E329F2
:06000600000000000800EC
:10000C000F3083120313FC004730FD00FD0B0C284E
:0A001C00FC0B0C2800000000080097
:0E002600213083120313FD00FD0B1728080084
:1000340083120313D11B2028861121288615511BF6
:100044002528061126280615D11A2A2886102B28B9
:100054008614511A2F28061030280614351834280F
:10006400061635280612861603208612D1193C2856
:1000740086113D2886155119412806114228061576
:10008400D118462886104728861451184B28061084
:100094004C280614351850280616512806128616C0
:1000A40003208612351C58280620592813200800DE
:1000B4008312031335105008D1001A203514080098
:1000C4000E3083120313FD00FD0B662800000800A8
:0E00D4008312031334088A00330882000800E8
:1000E20083120313F8010830FC00700DF80D740838
:1000F200F80203187E28F8070310F00DFC0B76288F
:020102000800F3
:1001040083160313981888280000822883124C0849
:040114009900080046
:100118000B3083120313FB002630FC005D30FD001A
:10012800FD0B9428FC0B9428FB0B9428000000007E
:020138000800BD
:10013A0083120313F801F9011030FC00710DF80D58
:10014A00F90D7408F8027508031C750FF9020318F3
:10015A00B5287408F80775080318750FF90703100E
:0A016A00F00DF10DFC0BA3280800B6
:1001740083120313CE0103304E020318C8284E081D
:100184004D07840020308000CE0ABD284E084D075C
:1001940084008001CE034E084D07CF000A30F400DE
:1001A4004C08F00071207808F0003030F0074F0858
:1001B4008400700880000A30F4004C08F0007120BC
:1001C4007008CC007008003A031DE928EB28CE0320
:0401D400CD2808002A
:1001D8006A208A110A128000840AB30A0319B40A31
:0801E800F003031DEC280800E0
:1001F000C330831203139F05C0309F004C08F000EA
:10020000F00D7010F00D701070089F0483169F178A
:1002100083121F1462209F149F1C102900000C29B8
:100220001F101E08F100F00183161E08F0040030B4
:04023000F1040800CD
:1002340083120313FB01FA01F9018030F800F10C79
:10024400F00C031C2E297408F90775080318750FA0
:10025400FA070318FB0A0310F01F36297408FA077B
:1002640075080318750FFB07FB0CFA0CF90CF80C56
:10027400031C21297B08F3007A08F2007908F100B5
:060284007808F0000800FC
:10028A0083160313981690308312980083168717E3
:10029A00071383128C1E54291A08F0004E290800ED
:1002AA00831603138612061206108610061186118B
:1002BA00831286120612861106118610061006206F
:1002CA0006200620861406148616032086120620A7
:1002DA00861603208612062086160320861206201A
:1002EA00061086160320861206208616032086121A
:1002FA008610861586160320861206208611061495
:10030A0086160320861206108616032086120620F9
:10031A0086160320861206148616032086120620E5
:10032A0006108616032086128615061586140614EC
:0C033A00861603208612062035140800E9
:10034600B529803083120313CC00C829C030CC00F5
:10035600C8299430CC00C829D430CC00C8298030B4
:10036600CC00C829831203134C08013A0319A429A7
:100376004C08023A0319A9294C08033A0319AC2977
:100386004C08043A0319AF29B2294D03F0004C0872
:10039600F0077008CC007008D1001A203510CF0184
:1003A6004F084E07840000080319E1294F084E073D
:1003B60084000008D0005A20CF0AD329351408003B
:1003C6004C3083120313A0003A30A100A201493039
:1003D600A3006E30A4006930A5006330A600693022
:1003E600A7006130A8006E30A9006430AA006F3003
:1003F600AB00AC014330AD003A30AE00AF01503037
:10040600B0003A30B100B201C401C501C601C7014E
:10041600C801C901CA01CB0104308316031788003D
:1004260089018312871388133330831603139900C7
:10043600181545210230FB000430FC00BA30FD00DF
:10044600FD0B232AFC0B232AFB0B232A0000FF307B
:10045600831685008601FF30880080308700FF30D4
:10046600890055210130D1001A200C30D1001A2004
:100476000130CC000130CD002330CE00A3218C20EA
:100486008C200130D1001A200C30D1001A20023005
:10049600CC00F82070088312B6007108B7009630B9
:1004A600F400F5011A213330F4000130F5009D20E7
:1004B6007008C4007108C500091C632A0710642A65
:1004C60007148030F000803045067002031D6D2A47
:1004D6004408233C0318722A86170613742A061743
:1004E6008613F1010518F10AF0018518F00A700863
:1004F600F107F2010318F20AF001881AF00A7008EF
:10050600F1070318F20AF001081BF00A7008F10758
:100516000318F20AF001881BF00A7008F1070318A5
:10052600F20A7108C6007208C700003008180130C8
:10053600C800C901F0018818F00A7008C807C90187
:100546000318C90AF0010819F00A7008C807031849
:10055600C90AF0018819F00A7008C8070318C90A01
:10056600F001081AF00A7008C8070318C90A003013
:1005760085190130CA00CB01F001051AF00A70088E
:10058600CA07CB010318CB0AF001851AF00A7008D6
:10059600CA070318CB0AF001051BF00A7008CA0740
:1005A6000318CB0AF001851BF00A7008CA07031866
:1005B600CB0A00307206031DE22A003071060319C9
:1005C600F52A00304906031DEA2A003048060319B9
:1005D600F52A00304B06031DF22A00304A0603199D
:1005E600F52AF82A3330CC0082204608CC003C306D
:1005F600CD00BA204808CC004030CD00BA204A08C9
:10060600CC003830CD00BA200130CC000130CD000E
:100616002D30CE00A3210130CC000330CD003C307C
:10062600CE00A3210130CC000830CD003030CE0002
:10063600A3210130CC000A30CD004030CE00A321EA
:100646000230CC000130CD002030CE00A321023094
:10065600CC000330CD003830CE00A3214A2A322BFD
:0406660030340034F8
:04400E00F22F000786
:00000001FF
