:02000000372A9D
:0E000600213083120313FD00FD0B07280800B4
:06001400000000000800DE
:10001A000F3083120313FC004730FD00FD0B132839
:0A002A00FC0B132800000000080082
:1000340083120313E11B2028861121288615611BD6
:100044002528061126280615E11A2A2886102B28A9
:100054008614611A2F2806103028061448183428EC
:1000640006163528061286160A208612E1193C283F
:1000740086113D2886156119412806114228061566
:10008400E118462886104728861461184B28061064
:100094004C280614481850280616512806128616AD
:1000A4000A208612481C58280D20592803200800CD
:0E00B4008312031347088A00460882000800E2
:1000C200831203138C11600893008316141D6A288F
:1000D200662883128C196E286A288316111B7328CE
:0C00E200F001762811150230F000080033
:1000EE0083120313F8010830FC00700DF80D74082C
:1000FE00F80203188428F8070310F00DFC0B7C2877
:02010E000800E7
:100110000E3083120313FD00FD0B8C280000080035
:100120008312031348106008E1001A2048140800E5
:10013000831603131419A6281F301105F100710846
:10014000003A031DA6280130F000A728F00108009E
:080150008316031311150800CA
:1001580083120313FB01FA01F9018030F800F10C56
:10016800F00C031CC0287408F90775080318750FEC
:10017800FA070318FB0A0310F01FC8287408FA07C7
:1001880075080318750FFB07FB0CFA0CF90CF80C33
:10019800031CB3287B08F3007A08F2007908F10001
:0601A8007808F0000800D9
:1001AE00E928803083120313DC00FC28C030DC0009
:1001BE00FC289430DC00FC28D430DC00FC28803095
:1001CE00DC00FC28831203135C08013A0319D828BB
:1001DE005C08023A0319DD285C08033A0319E0288B
:1001EE005C08043A0319E328E6285D03F0005C0876
:1001FE00F0077008DC007008E1001A204810DF01DB
:10020E005F085E0784000008031915295F085E0762
:10021E0084000008E0009020DF0A07294814080037
:10022E000B3083120313FB002630FC005D30FD0003
:10023E00FD0B1F29FC0B1F29FB0B1F2900000000C3
:02024E000800A6
:1002500083120313DE0103305E02031836295E08A1
:100260005D07840020308000DE0A2B295E085D07D0
:1002700084008001DE035E085D07DF000A30F400C1
:100280005C08F00077207808F0003030F0075F0855
:100290008400700880000A30F4005C08F0007720C9
:1002A0007008DC007008003A031D57295929DE0345
:0402B0003B290800DE
:1002B40083120313F801F9011030FC00710DF80DDD
:1002C400F90D7408F8027508031C750FF902031878
:1002D40072297408F80775080318750FF9070310D5
:0A02E400F00DF10DFC0B602908007D
:0E02EE00831603139114911C7D297A290800B0
:1002FC0083160313141394130716871538308312BF
:04030C009400080051
:10031000C330831203139F05C0309F005C08F000B8
:10032000F00D7010F00D701070089F0483169F1769
:1003300083121F1488209F149F1CA02900009C2951
:100340001F101E08F100F00183161E08F004003093
:04035000F1040800AC
:1003540083120313DC01DD015D08123C031DB42983
:100364005C088E3C031CC029982070080319BB2923
:10037400C0298312DC0A0319DD0AAE298312123064
:100384005D02031DC7298F305C02031CCC297B301E
:10039400F000D22983161114111CD129CE29F001A1
:0203A40008004F
:1003A600831603138612061206108610061186118E
:1003B60083128612061286110611861006100D206B
:1003C6000D200D208614061486160A2086120D208E
:1003D60086160A2086120D2086160A2086120D2001
:1003E600061086160A2086120D2086160A20861208
:1003F6008610861586160A2086120D20861106148A
:1004060086160A208612061086160A2086120D20E7
:1004160086160A208612061486160A2086120D20D3
:10042600061086160A2086128615061586140614E8
:0C04360086160A2086120D2048140800CB
:10044200831203135C08E000612083125D08E00060
:04045200612008001D
:100456005A208A110A128000840AC60A0319C70A9A
:08046600F003031D2B2A08001E
:10046E006E2383120313D701D801D901DA01DB0100
:10047E0004308316031788008901831287138813AB
:10048E00FF308316031385008601FF308800870135
:10049E00FF308900023093007E21D3210130E1002C
:1004AE001A200C30E1001A200130DC000130DD0092
:1004BE002030DE00D7200230DC000130DD00273096
:1004CE00DE00D72017210130E1001A200C30E100A8
:1004DE001A200130DC000130DD003330DE00D72081
:1004EE0017210130E1001A200C30E1001A200230F1
:1004FE00DC00882170088312CD007108CE00963082
:10050E00F400F501AC203330F4000130F5005A212F
:10051E007008D7007108D800091C972A0710982A6E
:10052E0007148030F000803058067002031DA12A97
:10053E005708233C0318A62A86170613A82A06175F
:10054E008613003005180130D900F0018518F00A25
:10055E007008D907F001881AF00A7008D907F0015F
:10056E00081BF00A7008D907F001881BF00A700802
:10057E00D907003008180130DA00F0018818F00AA7
:10058E007008DA07F0010819F00A7008DA07F001AE
:10059E008819F00A7008DA07F001081AF00A7008D4
:1005AE00DA07003085190130DB00F001051AF00A78
:1005BE007008DB07F001851AF00A7008DB07F001FE
:1005CE00051BF00A7008DB07F001851BF00A7008A6
:1005DE00DB07AA21A03083120313DC005908DD00CB
:1005EE0021227721A0308312DC005A08DD0021225F
:1005FE007721A0308312DC005B08DD002122A820C9
:10060E0083125908DC004930DD0028215A08DC002D
:10061E004F30DD0028215B08DC005330DD0028213F
:10062E000130DC000130DD004330DE00D720013028
:10063E00DC000330DD004930DE00D7200130DC0065
:10064E000830DD003D30DE00D7200130DC000A30FE
:10065E00DD004F30DE00D7200230DC000130DD003F
:10066E004030DE00D7200230DC000330DD00533096
:08067E00DE00D7207E2A422B8A
:1006DC0020308400263083120313F0004830C6000B
:0806EC000330C7002B220800B7
:0E0690004E346534763465347234613400348F
:10069E0049346E34743465346C346934673465347B
:0806AE006E347434653400342D
:1006B60049346E3469346334693461346E34643475
:0406C6006F34003459
:0606CA0050343A34003404
:0606D0004C343A34003402
:0606D60043343A34003405
:04400E00F42F000784
:00000001FF
