:02000000522A82
:06000600000000000800EC
:10000C000F3083120313FC004730FD00FD0B0C284E
:0A001C00FC0B0C2800000000080097
:0E002600213083120313FD00FD0B1728080084
:1000340083160313AA1B21288312861123288312F3
:10004400861583162A1B2928831206112B2883124E
:1000540006158316AA1A31288312861033288312B0
:10006400861483162A1A3928831206103B28831211
:1000740006145B183F28061640280612861603202D
:1000840086128316AA194928831286114B288312D3
:10009400861583162A1951288312061153288312B0
:1000A40006158316AA185928831286105B28831212
:1000B400861483162A186128831206106328831273
:1000C40006145B186728061668280612861603208D
:0E00D40086125B1C6F2806207028132008007F
:0E00E200831203135D088A005C088200080088
:1000F0000E3083120313FD00FD0B7C280000080066
:10010000831603132908F2007208F000F20A70083F
:100110008400000803198D28842829087202F00041
:0C0120000130F002F101031CF1030800A3
:10012C0083120313F8010830FC00700DF80D7408ED
:10013C00F8020318A328F8070310F00DFC0B9B28FA
:02014C000800A9
:10014E00831603139818AD280000A72829088312D8
:04015E0099000800FC
:10016200831203135B1083162908AA001A205B145A
:02017200080083
:1001740083160313A601033026020318C828260891
:100184002507840020308000A60ABD2826082507FC
:1001940084008001A60326082507A7000A30F4007E
:1001A4002408F00096207808F0003030F007831619
:1001B40027088400700880000A30F4002408F00046
:1001C400962070088316A4007008003A031DEB28DB
:0801D400ED28A603CD28080068
:1001DC000029803083160313A4001329C030A40017
:1001EC0013299430A4001329D430A400132980308F
:1001FC00A4001329831603132408013A0319EF28CA
:10020C002408023A0319F4282408033A0319F7289E
:10021C002408043A0319FA28FD282503F0002408C1
:10022C00F0077008A4007008AA001A205B1083164F
:10023C00A701270826078400000803192E29270880
:10024C00260784000008A900B1208316A70A1F29DD
:06025C0083125B14080090
:100262000B3083120313FB002630FC005D30FD00CF
:10027200FD0B3929FC0B3929FB0B39290000000041
:02028200080072
:1002840083120313FB01FA01F9018030F800F10C29
:10029400F00C031C56297408F90775080318750F28
:1002A400FA070318FB0A0310F01F5E297408FA0703
:1002B40075080318750FFB07FB0CFA0CF90CF80C06
:1002C400031C49297B08F3007A08F2007908F1003D
:0602D4007808F0000800AC
:1002DA0083120313F801F9011030FC00710DF80DB7
:1002EA00F90D7408F8027508031C750FF902031852
:1002FA0085297408F80775080318750FF90703109C
:0A030A00F00DF10DFC0B7329080043
:1003140071208A110A128000840ADC0A0319DD0A9A
:08032400F003031D8A29080003
:10032C00C330831203139F05C0309F00831624082B
:10033C00F000F00D7010F00D7010700883129F0417
:10034C0083169F1783121F1478209F149F1CB029AB
:10035C000000AC291F101E08F100F00183161E08C6
:08036C00F0040030F104080068
:1003740083160313861206120610861006118611C0
:1003840083128612061286110611861006100620A4
:1003940006200620861406148616032086120620DC
:1003A400861603208612062086160320861206204F
:1003B400061086160320861206208616032086124F
:1003C40086108615861603208612062086110614CA
:1003D400861603208612061086160320861206202F
:1003E400861603208612061486160320861206201B
:1003F4000610861603208612861506158614061422
:0C04040086160320861206205B140800F8
:10041000831603132408A90080207008A500710822
:10042000A6000B30FB002630FC005D30FD00FD0B0C
:10043000172AFC0B172AFB0B172A00000000A70144
:10044000A80180302806F000803026067002031DC7
:100450002B2A250827020318412A2708240784008D
:100460000008A900A7201A30FC00F830FD00FD0BA1
:10047000372AFC0B372A00008316A70A0319A80A9B
:04048000212A080025
:1004840083160313981690308312980083168717E7
:10049400071383128C1E512A1A08F0004B2A0800F5
:1004A400FC2383120313EC01ED01EE01EF0183162B
:1004B400A001A101A201A30104300317880089014E
:1004C4008312871388133330831603139900181586
:1004D4004222FF30831685008601FF308800803079
:1004E4008700FF308900BA2101308316AA001A2040
:1004F4000C308316AA001A2001308316A4000130A0
:10050400A5002330A600EE2002308316A40001309B
:10051400A5003A30A600EE20312101308316AA004E
:100524001A200C308316AA001A2001308316A40066
:100534000130A5004630A600EE203121013083169B
:10054400AA001A200C308316AA001A20023083163F
:10055400A400962170088312DE007108DF00963033
:10056400F400F50142213330F4000130F5006D212F
:100574007008EC007108ED00091CC22A0710C32A98
:1005840007148030F00080306D067002031DCC2A01
:100594006C08233C0318D12A86170613D32A06179E
:1005A4008613F1010518F10AF0018518F00A7008A4
:1005B400F107F2010318F20AF001881AF00A700830
:1005C400F1070318F20AF001081BF00A7008F1079A
:1005D4000318F20AF001881BF00A7008F1070318E7
:1005E400F20A7108EE007208EF00003008180130BA
:1005F4008316A000A101F00183128818F00A700884
:100604008316A007A1010318A10AF0018312081997
:10061400F00A70088316A0070318A10AF0018312D8
:100624008819F00A70088316A0070318A10AF001BC
:100634008312081AF00A70088316A0070318A10A87
:1006440000308312851901308316A200A301F00142
:100654008312051AF00A70088316A207A30103186F
:10066400A30AF0018312851AF00A70088316A20700
:100674000318A30AF0018312051BF00A70088316FD
:10068400A2070318A30AF0018312851BF00A70085D
:100694008316A2070318A30A00307206031D542B05
:1006A400003071060319672B00302106031D5C2BF3
:1006B400003020060319672B00302306031D642B2A
:1006C400003022060319672B7A2B2A30A400082253
:1006D4009930FB003130FC00A230FD00FD0B702B83
:1006E400FC0B702BFB0B702B00005030A400082275
:1006F40083126E088316A4006430A500BA20200873
:10070400A4006830A500BA202208A4006030A50027
:10071400BA200130A4000130A5005530A600EE2017
:1007240001308316A4000330A5006430A600EE2037
:1007340001308316A4000830A5005830A600EE202E
:1007440001308316A4000A30A5006830A600EE200C
:1007540002308316A4000130A5002030A600EE204C
:1007640002308316A4000330A5006030A600EE20FA
:04077400A82ABB2BC9
:1007F800203084003B3083120313F000C130DC004A
:080808000330DD008A21080025
:060782004C343A3400344F
:0E0788004E3465347634653472346134003496
:1007960041345434443430343934393431343234D5
:1007A600353435343634363436343B340D3400344F
:1007B60049346E34743465346C3469346734653462
:0807C6006E3474346534003414
:1007CE0049346E3469346334693461346E3464345C
:0407DE006F34003440
:0A07E2004134543448340D3400341F
:0607EC0043343A340034EE
:0607F20050343A340034DB
:04400E00F42F000784
:00000001FF
