:040000008A1526280F
:0E000600831203136A088A006908820008004A
:1000140083120313671D7028E71C2228671C152808
:100024002D30F30017282B30F30083165108840079
:1000340073088000D10A8312EB0A0319EC0A5828CA
:10004400671C2F2883165108840020308000D10AB1
:100054008312EB0A0319EC0A5828C0306705F10033
:1000640068080839F2007208083A031D3B288030FA
:100074007106031D5828831651088400303080000F
:10008400D10A8312EB0A0319EC0AE71E4C285830F4
:10009400F4004E287830F400831651088400740864
:1000A4008000D10A8312EB0A0319EC0A8316200894
:1000B400210403196F285108840030308000D10ACC
:1000C4008312EB0A0319EC0A01308316A002031C05
:1000D400A10320082104031D5D28EE2883162008AF
:1000E400210403198B288312E7198B2883165108DE
:1000F400840020308000D10A8312EB0A0319EC0A31
:1001040001308316A002031CA10320082104031D4F
:1001140078288312E71CA028671C93282D30F5004B
:1001240095282B30F500831651088400750880004B
:10013400D10A8312EB0A0319EC0AAC28671CAC2819
:1001440083165108840020308000D10A8312EB0A00
:100154000319EC0AC0306705F10068080839F20099
:100164007208083A031DB82840307106031DC528DB
:1001740083165108840030308000D10A8312EB0AC0
:100184000319EC0AEE28C0306705F1006808083945
:10019400F2007208083A031DD12880307106031D4D
:1001A400EE2883165108840030308000D10A83126F
:1001B400EB0A0319EC0AE71EE2285830F600E4289B
:1001C4007830F60083165108840076088000D10A3E
:1001D4008312EB0A0319EC0A83128030F00080309A
:1001E4006E067002031DF8286D086F0203180529B6
:1001F40083165108840030308000D10A8312EB0A40
:0E0204000319EC0AEE2883165108F0000800DA
:100212002E2983120313E7158316D10A0319D20A72
:100222008029831267148316D10A0319D20A8029FE
:100232008312E7148316D10A0319D20A8029831282
:10024200E8158316D10A0319D20A80298312671589
:100252008316D10A0319D20A80298316031351087F
:100262008312E900831652088312EA0003208A11DE
:100272000A12F10071082D3A03190A29831651084E
:100282008312E900831652088312EA0003208A11BE
:100292000A12F1007108203A031912298316510833
:1002A2008312E900831652088312EA0003208A119E
:1002B2000A12F10071082B3A031919298316510801
:1002C2008312E900831652088312EA0003208A117E
:1002D2000A12F1007108233A0319202983165108E2
:1002E2008312E900831652088312EA0003208A115E
:1002F2000A12F1007108303A0319272981290929C4
:100302008312E71C85296710E71D88296711831668
:0A0312005108F0005208F100080045
:10031C0083120313F801F9011030FC00710DF80D74
:10032C00F90D7408F8027508031C750FF90203180F
:10033C00A6297408F80775080318750FF907031038
:0A034C00F00DF10DFC0B94290800E0
:10035600831603135108393C031CB8293030510267
:0E036600031CB8290130F000B929F00108008D
:1003740083120313FB01FA01F9018030F800F10C38
:10038400F00C031CCE297408F90775080318750FBF
:10039400FA070318FB0A0310F01FD6297408FA079A
:1003A40075080318750FFB07FB0CFA0CF90CF80C15
:1003B400031CC1297B08F3007A08F2007908F100D4
:0603C4007808F0000800BB
:1003CA0083160313141394130716871538308312F0
:0403DA009400080083
:1003DE00831603134908831203178D0083168C139B
:0A03EE000C1483120C08F000080044
:1003F80083120313EB01EC01E701E80183164A08B5
:10040800F0004B08F100CA0A0319CB0A70088312DE
:10041800E9007108EA0003208A110A12F000700846
:10042800EF00700803190D2F6F08253A0319292AC0
:1004380083164908840083126F0880008316C90A4E
:100448008312EB0A0319EC0A022A8316A001A10100
:100458008312E701E80183164A08D1004B08D2004D
:1004680009217008CA007108CB0070088312E900DE
:100478007108EA0003208A110A12F0000030F10026
:1004880070088316D100AB2170080319862AA001D1
:10049800A1012008F0002108F1000A30F400003022
:1004A800F500BA2183164A088312E90083164B081F
:1004B8008312EA0003208A110A12F20072087007F8
:1004C8008316A00071080318013EA1003030A00275
:1004D800031CA103CA0A0319CB0A4A088312E900BC
:1004E80083164B088312EA0003208A110A12F000CF
:1004F8000030F10070088316D100AB217008031D8D
:100508004D2AAD2A4A088312E90083164B08831244
:10051800EA0003208A110A12F10071082A3A031D21
:10052800AD2A83164C0884000008F0007008840087
:100538000008A000840A0008A1004C0884000230CA
:100548000007F0004C08840070088000CA0A0319EC
:10055800CB0A83164A088312E90083164B088312D4
:10056800EA0003208A110A12F10071082E3A031DCD
:100578002A2B8316CA0A0319CB0A4A088312E900F0
:1005880083164B088312EA0003208A110A12F1002D
:1005980071082A3A031DEB2A83164C0884000008C8
:1005A800F0007008840000088312ED00840A000837
:1005B800EE0083164C08840002300007F0004C0857
:1005C800840070088000CA0A0319CB0A292B8312F9
:1005D800ED01EE0183164A088312E90083164B08E1
:1005E8008312EA0003208A110A12F0000030F10099
:1005F80070088316D100AB2170080319292B8312C8
:100608006D08F0006E08F1000A30F4000030F500C3
:10061800BA2183164A088312E90083164B0883120D
:10062800EA0003208A110A12F20072087007ED002E
:1006380071080318013EEE003030ED02031CEE0392
:100648008316CA0A0319CB0AEE2A2D2B8312ED0151
:10065800EE0183164A08F0004B08F100CA0A031994
:10066800CB0A70088312E9007108EA0003208A1196
:100678000A12EF001E2C6B08F0006C08F100122F14
:1006880067174F2C4F2CE716E7174F2C83164C088B
:1006980084000008F000700884000008CD004C08B1
:1006A8008400000AF0004C088400700880004D089F
:1006B800003A031D612B6230CD00CE01CF014E08F8
:1006C8004D07840000080319762B4E08013EF00000
:1006D80000300318013E4F07F1007008CE00710882
:1006E800CF00632B83126D086E0403198E2B8316BB
:1006F8004F0883126E02031D852B83164E08831242
:100708006D0203188E2B6D088316CE0083126E08B7
:100718008316CF00831621084F02031D952B20084E
:100728004E0203189E2B4E08A002031CA1034F087B
:10073800A102A02BA001A1018312E719BA2B8316ED
:100748002008F0002108F1000130A002031CA103D9
:10075800700871040319BA2B4908840020308000FE
:10076800C90A8312EB0A0319EC0AA32B83164E0855
:10077800F2004F08F30001304E02F0000030031C75
:10078800013E4F02F1007008CE007108CF007208D8
:1007980073040319E12B4D0884000008F000490890
:1007A800840070088000C90A4D0AF0007008CD0066
:1007B8008312EB0A0319EC0ABA2B8312E71DFB2BF1
:1007C80083162008F0002108F1000130A002031C64
:1007D800A103700871040319FB2B49088400203019
:1007E8008000C90A8312EB0A0319EC0AE42B022AD7
:1007F80083164C0884000008F00070088400000884
:100808008312EF0083164C08840002300007F000C2
:100818004C0884007008800083166F30CD000130CA
:10082800CE000030CF00762BC0308312E7040030B2
:10083800E8044F2C6F08003A03193F2B6F086C3AF5
:100848000319442B6F084C3A0319442B6F086F3A6D
:100858000319442B6F08643A0319462B6F08693A49
:100868000319462B6F08703A0319472B6F08583A3B
:100878000319472B6F08783A0319482B6F08733A06
:1008880003194A2B6F08633A0319FC2B6F08753A52
:100898000319182C102CC0306705F1006808F20005
:1008A8000030F20500307206031D5C2C0030710622
:1008B800031D912C83164C0884000008F000700872
:1008C80084000008CD00840A0008CE004C0884008B
:1008D80002300007F0004C08840070088000803067
:1008E8004E06F00080307002031D7C2C00304D0253
:1008F8000318902C03308312E7040030E8048316B1
:100908004D08003CF0004E08031C013EF101F102C5
:100918007008CD007108CE00A62C83164C08840000
:100928000008F000700884000008CD00840A000860
:10093800CE004C08840002300007F0004C08840008
:1009480070088000003083126E06031DAD2C003045
:100958006D06031DBC2C003083164E06031DB62CF5
:1009680000304D06031DBC2C8312ED0A0319EE0A54
:100978008312C0306705F0007008F400532D83120D
:100988000130EF006F08053A0319F22C6F08F000E8
:10099800F101F00DF10D7010BE30F0070A300318A8
:1009A800013EF1077008E9007108EA0003208A1186
:1009B8000A12F200E90A0319EA0A03208A110A1244
:1009C800F300730883164E02031DEC2C72084D02C7
:1009D8000318EF2CF22C8312EF0AC62C632D831216
:1009E8000130EF006F08043A0319222D6F08F00058
:1009F800F101F00DF10D7010C830F0070A3003183E
:100A0800013EF1077008E9007108EA0003208A1125
:100A18000A12F200E90A0319EA0A03208A110A12E3
:100A2800F300730883164E02031D1C2D72084D0235
:100A380003181F2D222D8312EF0AF62C632D831223
:100A48000130EF006F08063A0319522D6F08F000C5
:100A5800F101F00DF10D7010B230F0070A300318F3
:100A6800013EF1077008E9007108EA0003208A11C5
:100A78000A12F200E90A0319EA0A03208A110A1283
:100A8800F300730883164E02031D4C2D72084D02A5
:100A980003184F2D522D8312EF0A262D632D74084B
:100AA800003A0319C32C7408C03A0319C32C7408FC
:100AB800803A0319F32C7408403A0319232D831242
:100AC8008030F00080306E067002031D6D2D6D08B9
:100AD8006F020318722D6D08EF00802D80306E06AE
:100AE800F00080307002031D7B2D6F086D02031823
:100AF800802D6F08ED00EE018316200821040319EC
:100B0800962D033083126705F0006808F100003065
:100B1800F105700871040319962D01308316A0029F
:100B2800031CA103803083126E06F0008030831608
:100B380021067002031DA32D200883126D020318DD
:100B4800B02D83126D088316A002031CA103831223
:100B58006E088316A102B32D8316A001A101C4302B
:100B680083126705F10068080839F2007208083A2C
:100B7800031DC02D40307106031DCC2D831620089F
:100B880021040319CB2D0130A002031CA103EE2D73
:100B9800C03083126705F10068080839F20072084E
:100BA800083A031DD92D80307106031DEE2D8030C3
:100BB800F0008030831621067002031DE52D200801
:100BC800023C0318EC2D0230A002031CA103EE2DF9
:100BD800A001A10183164908D1000A207008C900A4
:100BE80083126D08F0006E08F1000130ED02031C5D
:100BF800EE03700871040319EC2EC0306705F0008D
:100C080070088316D000CE2E83126D08F0006E088F
:100C1800F100F00DF10D7010BE30F0070A30031826
:100C2800013EF1077008E9007108EA0003208A1103
:100C38000A12F400E90A0319EA0A03208A110A12BF
:100C4800F50083164D08F0004E08F1008E210A3099
:100C5800F4000030F5008E217808F0007908F100E2
:100C680030307007EF00DF2E8312E71E702E6D08FC
:100C7800F0006E08F100F00DF10D7010C830F007AB
:100C88000A300318013EF1077008E9007108EA000C
:100C980003208A110A12F400E90A0319EA0A032058
:100CA8008A110A12F50083164D08F0004E08F1006B
:100CB8008E210F30F0050030F105E930F0070730DC
:100CC8000318013EF1077008E9007108EA000320E3
:100CD8008A110A12EF00A42E6D08F0006E08F100C8
:100CE800F00DF10D7010C830F0070A300318013EFE
:100CF800F1077008E9007108EA0003208A110A1256
:100D0800F400E90A0319EA0A03208A110A12F50015
:100D180083164D08F0004E08F1008E210F30F005C3
:100D28000030F105A130F0070A300318013EF10741
:100D38007008E9007108EA0003208A110A12EF001E
:100D4800DF2E83126D08F0006E08F100F00DF10D32
:100D58007010B230F0070A300318013EF10770082E
:100D6800E9007108EA0003208A110A12F400E90A6E
:100D78000319EA0A03208A110A12F50083164D089E
:100D8800F0004E08F1008E2107307005EF0030307A
:100D9800EF07DF2E83165008003A0319082E500873
:100DA800C03A0319082E5008803A0319382E500803
:100DB800403A0319A52E83164908840083126F0848
:100DC80080008316C90A8312EB0A0319EC0AF42D72
:100DD800E71D0C2F8030F00080308316210670024A
:100DE800031DF82E2008003C03180C2F4908840026
:100DF80020308000C90A8312EB0A0319EC0A01307B
:100E08008316A002031CA10320082104031DFA2E47
:0E0E1800022A83126B08F0006C08F10008003B
:100E2600831603139818192F0000132F49088312ED
:040E36009900080017
:100E3A008316031398169030831298008316871727
:100E4A00071383128C1E2C2F1A08F000262F080075
:100E5A0003208A110A128000840AE90A0319EA0A9D
:080E6A00F003031D2D2F080009
:100E7200831603178801890133300313990018156B
:100E82001D2783169301E521FF308500FF3083166D
:0A0E92008500860183128601080026
:100E9C00831603134208F2007208F000F20A70087D
:100EAC008400000803195B2F522F42087202F000D5
:0C0EBC000130F002F101031CF1030800FA
:100EC800831603134208F2004408F0004508F100B5
:100ED8000130C402031CC5037008710403197A2F7A
:100EE8007208840043088000F20A682F4208F00064
:020EF8000800F0
:100EFA00831603178C1C832F00007D2F03134208CF
:100F0A00831203178D0083160313430883120317F2
:100F1A008C0083168C130C150B08F0008B135530BC
:100F2A008D00AA308D008C14F01B9D2F8B139E2FE1
:060F3A008B170C110800EA
:100F4000831203138C118316911583128C19A92F08
:100F5000A52F1308F10083164208003A031DB22F93
:100F60009116B32F911283128C11831611168312CE
:0C0F70008C19BB2FB72F7108F00008008F
:100F7C00C53083160313C8004208C9004308CA00D1
:100F8C004408CB00C830CC00FC2170088316C60086
:100F9C007108C70070084207840080014608F00001
:060FAC004708F1000800F7
:100FB200831603131419E72F1F301105F10071086E
:100FC200003A031DE72F0130F000E82FF00108007E
:10100000063083120313FB001330FC00AD30FD00EB
:10101000FD0B0828FC0B0828FB0B0828000000002B
:101020008316C30142084302031825284308C90058
:101030008A11EF218A15700883160313C9008A11DB
:0C10400013278A158316C30A1228080023
:10104C00D02283160313BC01BD01BE01BF01C00138
:10105C00C1018A1139278A15A2308316C2008A1160
:10106C004E278A157008C4007108C500A230C20052
:10107C00C3018A1164278A158A11D9278A15700829
:10108C00031DBD29C2018A11A0278A157008831679
:10109C00C100B129C2018A11A0278A1570088316D4
:1010AC00BF002030BB003B08C2008A114E278A15B6
:1010BC007008BC007108BD008030013AF20080302D
:1010CC0071067202031D6C287008003C031C8A28F0
:1010DC00BE018030F00080303D067002031D782880
:1010EC003C083E02031887283E08C2003E083B0716
:1010FC0084000008C3008A117D278A150313BE0AD9
:10110C006F283C08C2000020A230C2003D30C30052
:10111C000A30C4003F08C5008A11BE278A153B0857
:10112C00C2008A114E278A157008BC007108BD00D8
:10113C008030013AF200803071067202031DA8283B
:10114C007008003C031CC628BE018030F0008030C3
:10115C003D067002031DB4283C083E020318C32848
:10116C003E08C2003E083B0784000008C3008A11F9
:10117C007D278A150313BE0AAB283C08C200002049
:10118C00BD29C2018A11A0278A1570088316C000D8
:10119C004C30BB003B08C2008A114E278A157008E0
:1011AC00BC007108BD008030013AF200803071063D
:1011BC007202031DE3287008003C031C0129BE01C8
:1011CC008030F00080303D067002031DEF283C0893
:1011DC003E020318FE283E08C2003E083B0784006E
:1011EC000008C3008A117D278A150313BE0AE6285E
:1011FC003C08C2000020A230C2006F30C3000A308D
:10120C00C4004008C5008A11BE278A153B08C200DD
:10121C008A114E278A157008BC007108BD008030F9
:10122C00013AF200803071067202031D1F2970080A
:10123C00003C031C3D29BE018030F00080303D068F
:10124C007002031D2B293C083E0203183A293E0864
:10125C00C2003E083B0784000008C3008A117D27AA
:10126C008A150313BE0A22293C08C2000020BD299E
:10127C00C2018A11A0278A1536308316BB003B08A1
:10128C00C2008A114E278A157008BC007108BD0077
:10129C008030013AF200803071067202031D582929
:1012AC007008003C031C7629BE018030F0008030B1
:1012BC003D067002031D64293C083E020318732985
:1012CC003E08C2003E083B0784000008C3008A1198
:1012DC007D278A150313BE0A5B293C08C200002037
:1012EC00A230C2000B30C3000A30C4008A11BE27E2
:1012FC008A153B08C2008A114E278A157008BC005B
:10130C007108BD008030013AF20080307106720223
:10131C00031D92297008003C031CB029BE018030CB
:10132C00F00080303D067002031D9E293C083E02F1
:10133C000318AD293E08C2003E083B078400000894
:10134C00C3008A117D278A150313BE0A95293C0810
:10135C00C2000020BD294108003A03195028410859
:10136C00013A0319C7284108023A03193E294228B9
:02137C00BE2988
:1015A00020308400473083120313F000C430E90078
:0C15B0000930EA008A112D278A15080076
:100FD20030343134323433343434353436343734D3
:100FE2003834393441344234433444344534463459
:020FF2000034C9
:10138800413454342B3443344D34473453343D348E
:101398002234303439343834353433343134323417
:0C13A80030343734393422340D34003432
:1013B400413454342B3443344D34473453343D3462
:1013C40022343034393438343534333431343234EB
:0C13D40030343734393422340D34003406
:1013E000413454342B3443344D34473453343D3436
:1013F00022343034393438343534333431343234BF
:0C14000030343734393422340D340034D9
:0A140C006E3475346C346C34003417
:101416005334653420347434693465346E34653439
:1014260020346C3461347334203473346934673453
:101436007534693465346E347434653473342034E9
:10144600633461346E3474346934643461346434BE
:101456006534733420346434653420346334613441
:1014660072346E3465343A34253464342F342F3470
:0414760035340034D5
:10147A005334653420347434693465346E346534D5
:10148A0020346C34613473342034733469346734EF
:10149A007534693465346E34743465347334203485
:1014AA00633461346E34743469346434613464345A
:1014BA0065347334203464346534203470346F34C2
:1014CA006C346C346F343A34253464342F342F340A
:0414DA003534003471
:1014DE005334653420347434693465346E34653471
:1014EE0020346C346134733420347334693467348B
:1014FE007534693465346E34743465347334203421
:10150E00633461346E3474346934643461346434F5
:10151E006534733420346434653420346C3465346B
:10152E006334683465343A34253464342F342F34BC
:04153E00353400340C
:10154200303431343234333434343534363437345D
:101552003834393461346234633464346534663423
:02156200003453
:10156400013400340834003440340034003402348C
:0815740000341034003480340F
:10157C00013400340A34003464340034E834033465
:04158C0010342734BC
:101590000134003410340034003401340034103489
:04400E00F42F000784
:00000001FF
