:02000000C9290C
:06000600000000000800EC
:10000C000F3083120313FC004730FD00FD0B0C284E
:0A001C00FC0B0C2800000000080097
:0E002600213083120313FD00FD0B1728080084
:1000340083120313E81B2028861121288615681BC8
:100044002528061126280615E81A2A2886102B28A2
:100054008614681A2F2806103028061454183428D9
:10006400061635280612861603208612E8193C283F
:1000740086113D288615681941280611422806155F
:10008400E818462886104728861468184B28061056
:100094004C280614541850280616512806128616A1
:1000A40003208612541C58280620592813200800BF
:1000B4000E3083120313FD00FD0B5E2800000800C0
:1000C4008312031354106708E8001A20541408001C
:0E00D400831203134D088A004C0882000800B6
:1000E20083120313F8010830FC00700DF80D740838
:1000F200F80203187E28F8070310F00DFC0B76288F
:020102000800F3
:10010400C330831203139F05C0309F006308F000BF
:10011400F00D7010F00D701070089F0483169F1777
:1001240083121F145A209F149F1C9A28000096289B
:100134001F101E08F100F00183161E08F0040030A1
:04014400F1040800BA
:100148006A208A110A128000840ACC0A0319CD0A8F
:08015800F003031DA4280800B8
:1001600083120313FB01FA01F9018030F800F10C4E
:10017000F00C031CC4287408F90775080318750FE0
:10018000FA070318FB0A0310F01FCC287408FA07BB
:1001900075080318750FFB07FB0CFA0CF90CF80C2B
:1001A000031CB7287B08F3007A08F2007908F100F5
:0601B0007808F0000800D1
:1001B60083120313E501033065020318E928650875
:1001C6006407840020308000E50ADE28650864079D
:1001D60084008001E50365086407E6000A30F40040
:1001E6006308F00071207808F0003030F0076608E8
:1001F6008400700880000A30F4006308F000712063
:100206007008E3007008003A031D0A290C29E5036B
:04021600EE280800C6
:10021A001F29803083120313E3003229C030E30020
:10022A0032299430E3003229D430E3003229803075
:10023A00E3003229831203136308013A03190E29D2
:10024A006308023A031913296308033A03191629A2
:10025A006308043A031919291C296403F000630886
:10026A00F0077008E3007008E8001A205410E6014D
:10027A00660865078400000803194B2966086507A4
:10028A0084000008E7006220E60A3D2954140800A9
:10029A0083120313F801F9011030FC00710DF80DF7
:1002AA00F90D7408F8027508031C750FF902031892
:1002BA0065297408F80775080318750FF9070310FC
:0A02CA00F00DF10DFC0B53290800A4
:1002D4008316031386120612061086100611861161
:1002E4008312861206128611061186100610062045
:1002F400062006208614061486160320861206207D
:1003040086160320861206208616032086120620EF
:1003140006108616032086120620861603208612EF
:10032400861086158616032086120620861106146A
:1003340086160320861206108616032086120620CF
:1003440086160320861206148616032086120620BB
:1003540006108616032086128615061586140614C2
:0C036400861603208612062054140800A0
:100370000B3083120313FB002630FC005D30FD00C0
:10038000FD0BC029FC0BC029FB0BC029000000009D
:02039000080063
:100392001A2383120313DD01DE01DF01E001E10113
:1003A200E201043083160317880089018312871340
:1003B2008813FF308316031385008601FF308800FF
:1003C2006A210130E8001A200C30E8001A200130BE
:1003D200E3000130E4002030E5000D21B821B8210E
:1003E2000230E300822070088312CE007108CF0031
:1003F2009630F400F501B0203330F4000130F500FE
:100402004D218030F200803071067202031D0B2AEA
:100412007008233C0318102A86170613122A06179F
:100422008613003005180130DD00DE01F001851869
:10043200F00A7008DD07DE010318DE0AF001881AEF
:10044200F00A7008DD070318DE0AF001081BF00A43
:100452007008DD070318DE0AF001881BF00A700835
:10046200DD070318DE0A003008180130DF00E00162
:10047200F0018818F00A7008DF07E0010318E00AAB
:10048200F0010819F00A7008DF070318E00AF0010A
:100492008819F00A7008DF070318E00AF001081A49
:1004A200F00A7008DF070318E00A003085190130EE
:1004B200E100E201F001051AF00A7008E107E20129
:1004C2000318E20AF001851AF00A7008E10703181E
:1004D200E20AF001051BF00A7008E1070318E20ABC
:1004E200F001851BF00A7008E1070318E20A0130E7
:1004F200E8001A200C30E8001A205D08E3005930A9
:10050200E400DB200130E3000130E4004230E5008A
:100512000D210230E3000130E4005930E5000D21E5
:100522000830FB001B30FC002730FD00FD0B972A32
:10053200FC0B972AFB0B972A0130E8001A200C309B
:10054200E8001A205F08E3005030E400DB200130AD
:10055200E3000130E4003830E5000D210230E30011
:100562000130E4005030E5000D210830FB001B3063
:10057200FC002730FD00FD0BBC2AFC0BBC2AFB0B48
:10058200BC2A0130E8001A200C30E8001A20610869
:10059200E3005530E400DB200130E3000130E400E9
:1005A2002A30E5000D210230E3000130E40055302D
:1005B200E5000D210830FB001B30FC002730FD0058
:1005C200FD0BE12AFC0BE12AFB0BE12AF129E82AC7
:10063400203084002C3083120313F000EE30CC0001
:080644000230CD00A4200800E3
:1005DC0049346E3469346334693461346E34643450
:0405EC006F34003434
:1005F0004C34653463346834653420346C34693485
:0C060000743472346F3473343A340034B4
:10060C0050346F346C346C346F3420344B34673466
:04061C003A34003438
:100620004334613472346E34653420344B3467346F
:040630003A34003424
:04400E00F22F000786
:00000001FF
